{
  "_format": "hh-sol-artifact-1",
  "contractName": "SpectrumToken",
  "sourceName": "contracts/SpectrumToken.sol",
  "abi": [
    {
      "inputs": [
        {
          "internalType": "address",
          "name": "owner",
          "type": "address"
        }
      ],
      "stateMutability": "nonpayable",
      "type": "constructor"
    },
    {
      "inputs": [
        {
          "internalType": "address",
          "name": "sender",
          "type": "address"
        },
        {
          "internalType": "uint256",
          "name": "balance",
          "type": "uint256"
        },
        {
          "internalType": "uint256",
          "name": "needed",
          "type": "uint256"
        },
        {
          "internalType": "uint256",
          "name": "tokenId",
          "type": "uint256"
        }
      ],
      "name": "ERC1155InsufficientBalance",
      "type": "error"
    },
    {
      "inputs": [
        {
          "internalType": "address",
          "name": "approver",
          "type": "address"
        }
      ],
      "name": "ERC1155InvalidApprover",
      "type": "error"
    },
    {
      "inputs": [
        {
          "internalType": "uint256",
          "name": "idsLength",
          "type": "uint256"
        },
        {
          "internalType": "uint256",
          "name": "valuesLength",
          "type": "uint256"
        }
      ],
      "name": "ERC1155InvalidArrayLength",
      "type": "error"
    },
    {
      "inputs": [
        {
          "internalType": "address",
          "name": "operator",
          "type": "address"
        }
      ],
      "name": "ERC1155InvalidOperator",
      "type": "error"
    },
    {
      "inputs": [
        {
          "internalType": "address",
          "name": "receiver",
          "type": "address"
        }
      ],
      "name": "ERC1155InvalidReceiver",
      "type": "error"
    },
    {
      "inputs": [
        {
          "internalType": "address",
          "name": "sender",
          "type": "address"
        }
      ],
      "name": "ERC1155InvalidSender",
      "type": "error"
    },
    {
      "inputs": [
        {
          "internalType": "address",
          "name": "operator",
          "type": "address"
        },
        {
          "internalType": "address",
          "name": "owner",
          "type": "address"
        }
      ],
      "name": "ERC1155MissingApprovalForAll",
      "type": "error"
    },
    {
      "inputs": [
        {
          "internalType": "address",
          "name": "owner",
          "type": "address"
        }
      ],
      "name": "OwnableInvalidOwner",
      "type": "error"
    },
    {
      "inputs": [
        {
          "internalType": "address",
          "name": "account",
          "type": "address"
        }
      ],
      "name": "OwnableUnauthorizedAccount",
      "type": "error"
    },
    {
      "anonymous": false,
      "inputs": [
        {
          "indexed": true,
          "internalType": "address",
          "name": "account",
          "type": "address"
        },
        {
          "indexed": true,
          "internalType": "address",
          "name": "operator",
          "type": "address"
        },
        {
          "indexed": false,
          "internalType": "bool",
          "name": "approved",
          "type": "bool"
        }
      ],
      "name": "ApprovalForAll",
      "type": "event"
    },
    {
      "anonymous": false,
      "inputs": [
        {
          "indexed": true,
          "internalType": "address",
          "name": "previousOwner",
          "type": "address"
        },
        {
          "indexed": true,
          "internalType": "address",
          "name": "newOwner",
          "type": "address"
        }
      ],
      "name": "OwnershipTransferred",
      "type": "event"
    },
    {
      "anonymous": false,
      "inputs": [
        {
          "indexed": true,
          "internalType": "address",
          "name": "operator",
          "type": "address"
        },
        {
          "indexed": true,
          "internalType": "address",
          "name": "from",
          "type": "address"
        },
        {
          "indexed": true,
          "internalType": "address",
          "name": "to",
          "type": "address"
        },
        {
          "indexed": false,
          "internalType": "uint256[]",
          "name": "ids",
          "type": "uint256[]"
        },
        {
          "indexed": false,
          "internalType": "uint256[]",
          "name": "values",
          "type": "uint256[]"
        }
      ],
      "name": "TransferBatch",
      "type": "event"
    },
    {
      "anonymous": false,
      "inputs": [
        {
          "indexed": true,
          "internalType": "address",
          "name": "operator",
          "type": "address"
        },
        {
          "indexed": true,
          "internalType": "address",
          "name": "from",
          "type": "address"
        },
        {
          "indexed": true,
          "internalType": "address",
          "name": "to",
          "type": "address"
        },
        {
          "indexed": false,
          "internalType": "uint256",
          "name": "id",
          "type": "uint256"
        },
        {
          "indexed": false,
          "internalType": "uint256",
          "name": "value",
          "type": "uint256"
        }
      ],
      "name": "TransferSingle",
      "type": "event"
    },
    {
      "anonymous": false,
      "inputs": [
        {
          "indexed": false,
          "internalType": "string",
          "name": "value",
          "type": "string"
        },
        {
          "indexed": true,
          "internalType": "uint256",
          "name": "id",
          "type": "uint256"
        }
      ],
      "name": "URI",
      "type": "event"
    },
    {
      "inputs": [
        {
          "internalType": "address",
          "name": "account",
          "type": "address"
        },
        {
          "internalType": "uint256",
          "name": "id",
          "type": "uint256"
        }
      ],
      "name": "balanceOf",
      "outputs": [
        {
          "internalType": "uint256",
          "name": "",
          "type": "uint256"
        }
      ],
      "stateMutability": "view",
      "type": "function"
    },
    {
      "inputs": [
        {
          "internalType": "address[]",
          "name": "accounts",
          "type": "address[]"
        },
        {
          "internalType": "uint256[]",
          "name": "ids",
          "type": "uint256[]"
        }
      ],
      "name": "balanceOfBatch",
      "outputs": [
        {
          "internalType": "uint256[]",
          "name": "",
          "type": "uint256[]"
        }
      ],
      "stateMutability": "view",
      "type": "function"
    },
    {
      "inputs": [
        {
          "internalType": "address",
          "name": "user",
          "type": "address"
        },
        {
          "internalType": "uint256",
          "name": "id",
          "type": "uint256"
        }
      ],
      "name": "balanceOfUser",
      "outputs": [
        {
          "internalType": "uint256",
          "name": "",
          "type": "uint256"
        }
      ],
      "stateMutability": "view",
      "type": "function"
    },
    {
      "inputs": [
        {
          "internalType": "address",
          "name": "from",
          "type": "address"
        },
        {
          "internalType": "uint256",
          "name": "id",
          "type": "uint256"
        },
        {
          "internalType": "uint256",
          "name": "amount",
          "type": "uint256"
        }
      ],
      "name": "burn",
      "outputs": [],
      "stateMutability": "nonpayable",
      "type": "function"
    },
    {
      "inputs": [
        {
          "internalType": "address",
          "name": "account",
          "type": "address"
        },
        {
          "internalType": "address",
          "name": "operator",
          "type": "address"
        }
      ],
      "name": "isApprovedForAll",
      "outputs": [
        {
          "internalType": "bool",
          "name": "",
          "type": "bool"
        }
      ],
      "stateMutability": "view",
      "type": "function"
    },
    {
      "inputs": [
        {
          "internalType": "address",
          "name": "to",
          "type": "address"
        },
        {
          "internalType": "uint256",
          "name": "id",
          "type": "uint256"
        },
        {
          "internalType": "uint256",
          "name": "amount",
          "type": "uint256"
        }
      ],
      "name": "mint",
      "outputs": [],
      "stateMutability": "nonpayable",
      "type": "function"
    },
    {
      "inputs": [],
      "name": "owner",
      "outputs": [
        {
          "internalType": "address",
          "name": "",
          "type": "address"
        }
      ],
      "stateMutability": "view",
      "type": "function"
    },
    {
      "inputs": [],
      "name": "renounceOwnership",
      "outputs": [],
      "stateMutability": "nonpayable",
      "type": "function"
    },
    {
      "inputs": [
        {
          "internalType": "address",
          "name": "from",
          "type": "address"
        },
        {
          "internalType": "address",
          "name": "to",
          "type": "address"
        },
        {
          "internalType": "uint256[]",
          "name": "ids",
          "type": "uint256[]"
        },
        {
          "internalType": "uint256[]",
          "name": "values",
          "type": "uint256[]"
        },
        {
          "internalType": "bytes",
          "name": "data",
          "type": "bytes"
        }
      ],
      "name": "safeBatchTransferFrom",
      "outputs": [],
      "stateMutability": "nonpayable",
      "type": "function"
    },
    {
      "inputs": [
        {
          "internalType": "address",
          "name": "from",
          "type": "address"
        },
        {
          "internalType": "address",
          "name": "to",
          "type": "address"
        },
        {
          "internalType": "uint256",
          "name": "id",
          "type": "uint256"
        },
        {
          "internalType": "uint256",
          "name": "value",
          "type": "uint256"
        },
        {
          "internalType": "bytes",
          "name": "data",
          "type": "bytes"
        }
      ],
      "name": "safeTransferFrom",
      "outputs": [],
      "stateMutability": "nonpayable",
      "type": "function"
    },
    {
      "inputs": [
        {
          "internalType": "address",
          "name": "operator",
          "type": "address"
        },
        {
          "internalType": "bool",
          "name": "approved",
          "type": "bool"
        }
      ],
      "name": "setApprovalForAll",
      "outputs": [],
      "stateMutability": "nonpayable",
      "type": "function"
    },
    {
      "inputs": [
        {
          "internalType": "bytes4",
          "name": "interfaceId",
          "type": "bytes4"
        }
      ],
      "name": "supportsInterface",
      "outputs": [
        {
          "internalType": "bool",
          "name": "",
          "type": "bool"
        }
      ],
      "stateMutability": "view",
      "type": "function"
    },
    {
      "inputs": [
        {
          "internalType": "address",
          "name": "newOwner",
          "type": "address"
        }
      ],
      "name": "transferOwnership",
      "outputs": [],
      "stateMutability": "nonpayable",
      "type": "function"
    },
    {
      "inputs": [
        {
          "internalType": "address",
          "name": "marketplace",
          "type": "address"
        },
        {
          "internalType": "uint256",
          "name": "id",
          "type": "uint256"
        },
        {
          "internalType": "uint256",
          "name": "amount",
          "type": "uint256"
        }
      ],
      "name": "transferToCustody",
      "outputs": [],
      "stateMutability": "nonpayable",
      "type": "function"
    },
    {
      "inputs": [
        {
          "internalType": "uint256",
          "name": "",
          "type": "uint256"
        }
      ],
      "name": "uri",
      "outputs": [
        {
          "internalType": "string",
          "name": "",
          "type": "string"
        }
      ],
      "stateMutability": "view",
      "type": "function"
    }
  ],
  "bytecode": "0x60806040523480156200001157600080fd5b506040516200173738038062001737833981016040819052620000349162000101565b806040518060600160405280602a81526020016200170d602a91396200005a816200009d565b506001600160a01b0381166200008a57604051631e4fbdf760e01b81526000600482015260240160405180910390fd5b6200009581620000af565b5050620002a4565b6002620000ab8282620001d8565b5050565b600380546001600160a01b038381166001600160a01b0319831681179093556040519116919082907f8be0079c531659141344cd1fd0a4f28419497f9722a3daafe3b4186f6b6457e090600090a35050565b6000602082840312156200011457600080fd5b81516001600160a01b03811681146200012c57600080fd5b9392505050565b634e487b7160e01b600052604160045260246000fd5b600181811c908216806200015e57607f821691505b6020821081036200017f57634e487b7160e01b600052602260045260246000fd5b50919050565b601f821115620001d357600081815260208120601f850160051c81016020861015620001ae5750805b601f850160051c820191505b81811015620001cf57828155600101620001ba565b5050505b505050565b81516001600160401b03811115620001f457620001f462000133565b6200020c8162000205845462000149565b8462000185565b602080601f8311600181146200024457600084156200022b5750858301515b600019600386901b1c1916600185901b178555620001cf565b600085815260208120601f198616915b82811015620002755788860151825594840194600190910190840162000254565b5085821015620002945787850151600019600388901b60f8161c191681555b5050505050600190811b01905550565b61145980620002b46000396000f3fe608060405234801561001057600080fd5b50600436106100f45760003560e01c80638da5cb5b11610097578063f242432a11610066578063f242432a14610206578063f2fde38b14610219578063f43cc3b31461022c578063f5298aca1461023f57600080fd5b80638da5cb5b146101b2578063a22cb465146101cd578063a6632301146101e0578063e985e9c5146101f357600080fd5b8063156e29f6116100d3578063156e29f6146101625780632eb2c2d6146101775780634e1273f41461018a578063715018a6146101aa57600080fd5b8062fdd58e146100f957806301ffc9a71461011f5780630e89341c14610142575b600080fd5b61010c610107366004610db4565b610252565b6040519081526020015b60405180910390f35b61013261012d366004610df4565b61027a565b6040519015158152602001610116565b610155610150366004610e11565b6102ca565b6040516101169190610e70565b610175610170366004610e83565b61035e565b005b610175610185366004610ffc565b610386565b61019d6101983660046110a6565b6103f2565b60405161011691906111a1565b6101756104c7565b6003546040516001600160a01b039091168152602001610116565b6101756101db3660046111b4565b6104db565b6101756101ee366004610e83565b6104ea565b6101326102013660046111f0565b61055f565b610175610214366004611223565b61058d565b610175610227366004611288565b6105ec565b61010c61023a366004610db4565b61062a565b61017561024d366004610e83565b61063d565b6000818152602081815260408083206001600160a01b03861684529091529020545b92915050565b60006001600160e01b03198216636cdb3d1360e11b14806102ab57506001600160e01b031982166303a24d0760e21b145b8061027457506301ffc9a760e01b6001600160e01b0319831614610274565b6060600280546102d9906112a3565b80601f0160208091040260200160405190810160405280929190818152602001828054610305906112a3565b80156103525780601f1061032757610100808354040283529160200191610352565b820191906000526020600020905b81548152906001019060200180831161033557829003601f168201915b50505050509050919050565b610366610650565b6103818383836040518060200160405280600081525061067d565b505050565b336001600160a01b03861681148015906103a757506103a5868261055f565b155b156103dd5760405163711bec9160e11b81526001600160a01b038083166004830152871660248201526044015b60405180910390fd5b6103ea86868686866106da565b505050505050565b606081518351146104235781518351604051635b05999160e01b8152600481019290925260248201526044016103d4565b6000835167ffffffffffffffff81111561043f5761043f610eb6565b604051908082528060200260200182016040528015610468578160200160208202803683370190505b50905060005b84518110156104bf5760208082028601015161049290602080840287010151610252565b8282815181106104a4576104a46112dd565b60209081029190910101526104b881611309565b905061046e565b509392505050565b6104cf610650565b6104d96000610741565b565b6104e6338383610793565b5050565b806104f53384610252565b10156105435760405162461bcd60e51b815260206004820152601a60248201527f496e73756666696369656e7420746f6b656e2062616c616e636500000000000060448201526064016103d4565b610381338484846040518060200160405280600081525061058d565b6001600160a01b03918216600090815260016020908152604080832093909416825291909152205460ff1690565b336001600160a01b03861681148015906105ae57506105ac868261055f565b155b156105df5760405163711bec9160e11b81526001600160a01b038083166004830152871660248201526044016103d4565b6103ea8686868686610829565b6105f4610650565b6001600160a01b03811661061e57604051631e4fbdf760e01b8152600060048201526024016103d4565b61062781610741565b50565b60006106368383610252565b9392505050565b610645610650565b6103818383836108b7565b6003546001600160a01b031633146104d95760405163118cdaa760e01b81523360048201526024016103d4565b6001600160a01b0384166106a757604051632bfa23e760e11b8152600060048201526024016103d4565b604080516001808252602082018690528183019081526060820185905260808201909252906103ea60008784848761091b565b6001600160a01b03841661070457604051632bfa23e760e11b8152600060048201526024016103d4565b6001600160a01b03851661072d57604051626a0d4560e21b8152600060048201526024016103d4565b61073a858585858561091b565b5050505050565b600380546001600160a01b038381166001600160a01b0319831681179093556040519116919082907f8be0079c531659141344cd1fd0a4f28419497f9722a3daafe3b4186f6b6457e090600090a35050565b6001600160a01b0382166107bc5760405162ced3e160e81b8152600060048201526024016103d4565b6001600160a01b03838116600081815260016020908152604080832094871680845294825291829020805460ff191686151590811790915591519182527f17307eab39ab6107e8899845ad3d59bd9653f200f220920489ca2b5937696c31910160405180910390a3505050565b6001600160a01b03841661085357604051632bfa23e760e11b8152600060048201526024016103d4565b6001600160a01b03851661087c57604051626a0d4560e21b8152600060048201526024016103d4565b604080516001808252602082018690528183019081526060820185905260808201909252906108ae878784848761091b565b50505050505050565b6001600160a01b0383166108e057604051626a0d4560e21b8152600060048201526024016103d4565b604080516001808252602082018590528183019081526060820184905260a0820190925260006080820181815291929161073a918791859085905b6109278585858561096e565b6001600160a01b0384161561073a57825133906001036109605760208481015190840151610959838989858589610b8b565b50506103ea565b6103ea818787878787610caf565b805182511461099d5781518151604051635b05999160e01b8152600481019290925260248201526044016103d4565b3360005b8351811015610aac576020818102858101820151908501909101516001600160a01b03881615610a54576000828152602081815260408083206001600160a01b038c16845290915290205481811015610a2d576040516303dee4c560e01b81526001600160a01b038a1660048201526024810182905260448101839052606481018490526084016103d4565b6000838152602081815260408083206001600160a01b038d16845290915290209082900390555b6001600160a01b03871615610a99576000828152602081815260408083206001600160a01b038b16845290915281208054839290610a93908490611322565b90915550505b505080610aa590611309565b90506109a1565b508251600103610b2d5760208301516000906020840151909150856001600160a01b0316876001600160a01b0316846001600160a01b03167fc3d58168c5ae7397731d063d5bbf3d657854427343f4c083240f7aacaa2d0f628585604051610b1e929190918252602082015260400190565b60405180910390a4505061073a565b836001600160a01b0316856001600160a01b0316826001600160a01b03167f4a39dc06d4c0dbc64b70af90fd698a233a518aa5d07e595d983b8c0526c8f7fb8686604051610b7c929190611335565b60405180910390a45050505050565b6001600160a01b0384163b156103ea5760405163f23a6e6160e01b81526001600160a01b0385169063f23a6e6190610bcf9089908990889088908890600401611363565b6020604051808303816000875af1925050508015610c0a575060408051601f3d908101601f19168201909252610c07918101906113a8565b60015b610c73573d808015610c38576040519150601f19603f3d011682016040523d82523d6000602084013e610c3d565b606091505b508051600003610c6b57604051632bfa23e760e11b81526001600160a01b03861660048201526024016103d4565b805181602001fd5b6001600160e01b0319811663f23a6e6160e01b146108ae57604051632bfa23e760e11b81526001600160a01b03861660048201526024016103d4565b6001600160a01b0384163b156103ea5760405163bc197c8160e01b81526001600160a01b0385169063bc197c8190610cf390899089908890889088906004016113c5565b6020604051808303816000875af1925050508015610d2e575060408051601f3d908101601f19168201909252610d2b918101906113a8565b60015b610d5c573d808015610c38576040519150601f19603f3d011682016040523d82523d6000602084013e610c3d565b6001600160e01b0319811663bc197c8160e01b146108ae57604051632bfa23e760e11b81526001600160a01b03861660048201526024016103d4565b80356001600160a01b0381168114610daf57600080fd5b919050565b60008060408385031215610dc757600080fd5b610dd083610d98565b946020939093013593505050565b6001600160e01b03198116811461062757600080fd5b600060208284031215610e0657600080fd5b813561063681610dde565b600060208284031215610e2357600080fd5b5035919050565b6000815180845260005b81811015610e5057602081850181015186830182015201610e34565b506000602082860101526020601f19601f83011685010191505092915050565b6020815260006106366020830184610e2a565b600080600060608486031215610e9857600080fd5b610ea184610d98565b95602085013595506040909401359392505050565b634e487b7160e01b600052604160045260246000fd5b604051601f8201601f1916810167ffffffffffffffff81118282101715610ef557610ef5610eb6565b604052919050565b600067ffffffffffffffff821115610f1757610f17610eb6565b5060051b60200190565b600082601f830112610f3257600080fd5b81356020610f47610f4283610efd565b610ecc565b82815260059290921b84018101918181019086841115610f6657600080fd5b8286015b84811015610f815780358352918301918301610f6a565b509695505050505050565b600082601f830112610f9d57600080fd5b813567ffffffffffffffff811115610fb757610fb7610eb6565b610fca601f8201601f1916602001610ecc565b818152846020838601011115610fdf57600080fd5b816020850160208301376000918101602001919091529392505050565b600080600080600060a0868803121561101457600080fd5b61101d86610d98565b945061102b60208701610d98565b9350604086013567ffffffffffffffff8082111561104857600080fd5b61105489838a01610f21565b9450606088013591508082111561106a57600080fd5b61107689838a01610f21565b9350608088013591508082111561108c57600080fd5b5061109988828901610f8c565b9150509295509295909350565b600080604083850312156110b957600080fd5b823567ffffffffffffffff808211156110d157600080fd5b818501915085601f8301126110e557600080fd5b813560206110f5610f4283610efd565b82815260059290921b8401810191818101908984111561111457600080fd5b948201945b838610156111395761112a86610d98565b82529482019490820190611119565b9650508601359250508082111561114f57600080fd5b5061115c85828601610f21565b9150509250929050565b600081518084526020808501945080840160005b838110156111965781518752958201959082019060010161117a565b509495945050505050565b6020815260006106366020830184611166565b600080604083850312156111c757600080fd5b6111d083610d98565b9150602083013580151581146111e557600080fd5b809150509250929050565b6000806040838503121561120357600080fd5b61120c83610d98565b915061121a60208401610d98565b90509250929050565b600080600080600060a0868803121561123b57600080fd5b61124486610d98565b945061125260208701610d98565b93506040860135925060608601359150608086013567ffffffffffffffff81111561127c57600080fd5b61109988828901610f8c565b60006020828403121561129a57600080fd5b61063682610d98565b600181811c908216806112b757607f821691505b6020821081036112d757634e487b7160e01b600052602260045260246000fd5b50919050565b634e487b7160e01b600052603260045260246000fd5b634e487b7160e01b600052601160045260246000fd5b60006001820161131b5761131b6112f3565b5060010190565b80820180821115610274576102746112f3565b6040815260006113486040830185611166565b828103602084015261135a8185611166565b95945050505050565b6001600160a01b03868116825285166020820152604081018490526060810183905260a06080820181905260009061139d90830184610e2a565b979650505050505050565b6000602082840312156113ba57600080fd5b815161063681610dde565b6001600160a01b0386811682528516602082015260a0604082018190526000906113f190830186611166565b82810360608401526114038186611166565b905082810360808401526114178185610e2a565b9897505050505050505056fea2646970667358221220d34b4e2da8193f03cd8eeb43c87a6294c09219cd2b00fd3b06f708ec0946e75b64736f6c6343000814003368747470733a2f2f6170692e6578616d706c652e636f6d2f6d657461646174612f7b69647d2e6a736f6e",
  "linkReferences": {},
  "deployedLinkReferences": {}
}