{"contracts/SpectrumConstants.sol":{"SpectrumConstants":{"abi":[{"inputs":[],"name":"SPECTRUM_700MHZ","outputs":[{"internalType":"uint256","name":"","type":"uint256"}],"stateMutability":"view","type":"function"},{"inputs":[],"name":"SPECTRUM_800MHZ","outputs":[{"internalType":"uint256","name":"","type":"uint256"}],"stateMutability":"view","type":"function"}],"evm":{"bytecode":{"linkReferences":{},"object":"609a610038600b82828239805160001a607314602b57634e487b7160e01b600052600060045260246000fd5b30600052607381538281f3fe7300000000000000000000000000000000000000003014608060405260043610603d5760003560e01c80633612510b146042578063671da2fc14605c575b600080fd5b604a6102bc81565b60405190815260200160405180910390f35b604a6103208156fea2646970667358221220831ad1546e8fde9ea48ba13702dd99dbd1f5c2087898989158b2166c59762e9d64736f6c63430008140033","opcodes":"PUSH1 0x9A PUSH2 0x38 PUSH1 0xB DUP3 DUP3 DUP3 CODECOPY DUP1 MLOAD PUSH1 0x0 BYTE PUSH1 0x73 EQ PUSH1 0x2B JUMPI PUSH4 0x4E487B71 PUSH1 0xE0 SHL PUSH1 0x0 MSTORE PUSH1 0x0 PUSH1 0x4 MSTORE PUSH1 0x24 PUSH1 0x0 REVERT JUMPDEST ADDRESS PUSH1 0x0 MSTORE PUSH1 0x73 DUP2 MSTORE8 DUP3 DUP2 RETURN INVALID PUSH20 0x0 ADDRESS EQ PUSH1 0x80 PUSH1 0x40 MSTORE PUSH1 0x4 CALLDATASIZE LT PUSH1 0x3D JUMPI PUSH1 0x0 CALLDATALOAD PUSH1 0xE0 SHR DUP1 PUSH4 0x3612510B EQ PUSH1 0x42 JUMPI DUP1 PUSH4 0x671DA2FC EQ PUSH1 0x5C JUMPI JUMPDEST PUSH1 0x0 DUP1 REVERT JUMPDEST PUSH1 0x4A PUSH2 0x2BC DUP2 JUMP JUMPDEST PUSH1 0x40 MLOAD SWAP1 DUP2 MSTORE PUSH1 0x20 ADD PUSH1 0x40 MLOAD DUP1 SWAP2 SUB SWAP1 RETURN JUMPDEST PUSH1 0x4A PUSH2 0x320 DUP2 JUMP INVALID LOG2 PUSH5 0x6970667358 0x22 SLT KECCAK256 DUP4 BYTE 0xD1 SLOAD PUSH15 0x8FDE9EA48BA13702DD99DBD1F5C208 PUSH25 0x98989158B2166C59762E9D64736F6C63430008140033000000 "},"methodIdentifiers":{"SPECTRUM_700MHZ()":"3612510b","SPECTRUM_800MHZ()":"671da2fc"}}}}}