{
  "_format": "hh-sol-artifact-1",
  "contractName": "SpectrumMarketplace",
  "sourceName": "contracts/SpectrumMarketplace.sol",
  "abi": [
    {
      "inputs": [
        {
          "internalType": "address",
          "name": "_spectrumToken",
          "type": "address"
        },
        {
          "internalType": "address",
          "name": "_tokenManager",
          "type": "address"
        },
        {
          "internalType": "address",
          "name": "_providerManager",
          "type": "address"
        },
        {
          "internalType": "address",
          "name": "_rentalManager",
          "type": "address"
        }
      ],
      "stateMutability": "nonpayable",
      "type": "constructor"
    },
    {
      "inputs": [],
      "name": "EnforcedPause",
      "type": "error"
    },
    {
      "inputs": [],
      "name": "ExpectedPause",
      "type": "error"
    },
    {
      "inputs": [
        {
          "internalType": "address",
          "name": "owner",
          "type": "address"
        }
      ],
      "name": "OwnableInvalidOwner",
      "type": "error"
    },
    {
      "inputs": [
        {
          "internalType": "address",
          "name": "account",
          "type": "address"
        }
      ],
      "name": "OwnableUnauthorizedAccount",
      "type": "error"
    },
    {
      "anonymous": false,
      "inputs": [
        {
          "indexed": true,
          "internalType": "address",
          "name": "previousOwner",
          "type": "address"
        },
        {
          "indexed": true,
          "internalType": "address",
          "name": "newOwner",
          "type": "address"
        }
      ],
      "name": "OwnershipTransferred",
      "type": "event"
    },
    {
      "anonymous": false,
      "inputs": [
        {
          "indexed": false,
          "internalType": "address",
          "name": "account",
          "type": "address"
        }
      ],
      "name": "Paused",
      "type": "event"
    },
    {
      "anonymous": false,
      "inputs": [
        {
          "indexed": true,
          "internalType": "address",
          "name": "tenant",
          "type": "address"
        },
        {
          "indexed": false,
          "internalType": "uint256[]",
          "name": "spectrumIds",
          "type": "uint256[]"
        },
        {
          "indexed": false,
          "internalType": "uint256[]",
          "name": "amounts",
          "type": "uint256[]"
        }
      ],
      "name": "RentalExpanded",
      "type": "event"
    },
    {
      "anonymous": false,
      "inputs": [
        {
          "indexed": true,
          "internalType": "address",
          "name": "provider",
          "type": "address"
        },
        {
          "indexed": true,
          "internalType": "uint256",
          "name": "spectrumId",
          "type": "uint256"
        },
        {
          "indexed": false,
          "internalType": "uint256",
          "name": "amount",
          "type": "uint256"
        },
        {
          "indexed": false,
          "internalType": "uint256",
          "name": "ratePerHour",
          "type": "uint256"
        }
      ],
      "name": "SpectrumListed",
      "type": "event"
    },
    {
      "anonymous": false,
      "inputs": [
        {
          "indexed": true,
          "internalType": "address",
          "name": "tenant",
          "type": "address"
        },
        {
          "indexed": false,
          "internalType": "uint256[]",
          "name": "spectrumIds",
          "type": "uint256[]"
        },
        {
          "indexed": false,
          "internalType": "uint256[]",
          "name": "amounts",
          "type": "uint256[]"
        },
        {
          "indexed": false,
          "internalType": "uint256",
          "name": "rentalDuration",
          "type": "uint256"
        }
      ],
      "name": "SpectrumRented",
      "type": "event"
    },
    {
      "anonymous": false,
      "inputs": [
        {
          "indexed": true,
          "internalType": "address",
          "name": "tenant",
          "type": "address"
        },
        {
          "indexed": false,
          "internalType": "uint256[]",
          "name": "spectrumIds",
          "type": "uint256[]"
        },
        {
          "indexed": false,
          "internalType": "uint256[]",
          "name": "amounts",
          "type": "uint256[]"
        }
      ],
      "name": "SpectrumReturned",
      "type": "event"
    },
    {
      "anonymous": false,
      "inputs": [
        {
          "indexed": false,
          "internalType": "address",
          "name": "account",
          "type": "address"
        }
      ],
      "name": "Unpaused",
      "type": "event"
    },
    {
      "inputs": [
        {
          "internalType": "uint256[]",
          "name": "spectrumIds",
          "type": "uint256[]"
        },
        {
          "internalType": "uint256[]",
          "name": "amounts",
          "type": "uint256[]"
        }
      ],
      "name": "expandRental",
      "outputs": [],
      "stateMutability": "nonpayable",
      "type": "function"
    },
    {
      "inputs": [
        {
          "internalType": "uint256",
          "name": "spectrumId",
          "type": "uint256"
        },
        {
          "internalType": "uint256",
          "name": "amount",
          "type": "uint256"
        },
        {
          "internalType": "uint256",
          "name": "ratePerHour",
          "type": "uint256"
        }
      ],
      "name": "listSpectrum",
      "outputs": [],
      "stateMutability": "nonpayable",
      "type": "function"
    },
    {
      "inputs": [
        {
          "internalType": "address",
          "name": "",
          "type": "address"
        },
        {
          "internalType": "address",
          "name": "",
          "type": "address"
        },
        {
          "internalType": "uint256[]",
          "name": "",
          "type": "uint256[]"
        },
        {
          "internalType": "uint256[]",
          "name": "",
          "type": "uint256[]"
        },
        {
          "internalType": "bytes",
          "name": "",
          "type": "bytes"
        }
      ],
      "name": "onERC1155BatchReceived",
      "outputs": [
        {
          "internalType": "bytes4",
          "name": "",
          "type": "bytes4"
        }
      ],
      "stateMutability": "pure",
      "type": "function"
    },
    {
      "inputs": [
        {
          "internalType": "address",
          "name": "",
          "type": "address"
        },
        {
          "internalType": "address",
          "name": "",
          "type": "address"
        },
        {
          "internalType": "uint256",
          "name": "",
          "type": "uint256"
        },
        {
          "internalType": "uint256",
          "name": "",
          "type": "uint256"
        },
        {
          "internalType": "bytes",
          "name": "",
          "type": "bytes"
        }
      ],
      "name": "onERC1155Received",
      "outputs": [
        {
          "internalType": "bytes4",
          "name": "",
          "type": "bytes4"
        }
      ],
      "stateMutability": "pure",
      "type": "function"
    },
    {
      "inputs": [],
      "name": "owner",
      "outputs": [
        {
          "internalType": "address",
          "name": "",
          "type": "address"
        }
      ],
      "stateMutability": "view",
      "type": "function"
    },
    {
      "inputs": [],
      "name": "pause",
      "outputs": [],
      "stateMutability": "nonpayable",
      "type": "function"
    },
    {
      "inputs": [],
      "name": "paused",
      "outputs": [
        {
          "internalType": "bool",
          "name": "",
          "type": "bool"
        }
      ],
      "stateMutability": "view",
      "type": "function"
    },
    {
      "inputs": [],
      "name": "providerManager",
      "outputs": [
        {
          "internalType": "contract SpectrumProviderManager",
          "name": "",
          "type": "address"
        }
      ],
      "stateMutability": "view",
      "type": "function"
    },
    {
      "inputs": [],
      "name": "renounceOwnership",
      "outputs": [],
      "stateMutability": "nonpayable",
      "type": "function"
    },
    {
      "inputs": [
        {
          "internalType": "uint256[]",
          "name": "spectrumIds",
          "type": "uint256[]"
        },
        {
          "internalType": "uint256[]",
          "name": "amounts",
          "type": "uint256[]"
        },
        {
          "internalType": "uint256",
          "name": "balance",
          "type": "uint256"
        }
      ],
      "name": "rentSpectrum",
      "outputs": [],
      "stateMutability": "payable",
      "type": "function"
    },
    {
      "inputs": [],
      "name": "rentalManager",
      "outputs": [
        {
          "internalType": "contract SpectrumRentalManager",
          "name": "",
          "type": "address"
        }
      ],
      "stateMutability": "view",
      "type": "function"
    },
    {
      "inputs": [
        {
          "internalType": "uint256[]",
          "name": "spectrumIds",
          "type": "uint256[]"
        },
        {
          "internalType": "uint256[]",
          "name": "amounts",
          "type": "uint256[]"
        }
      ],
      "name": "returnSpectrum",
      "outputs": [],
      "stateMutability": "nonpayable",
      "type": "function"
    },
    {
      "inputs": [],
      "name": "spectrumToken",
      "outputs": [
        {
          "internalType": "contract SpectrumToken",
          "name": "",
          "type": "address"
        }
      ],
      "stateMutability": "view",
      "type": "function"
    },
    {
      "inputs": [
        {
          "internalType": "bytes4",
          "name": "interfaceId",
          "type": "bytes4"
        }
      ],
      "name": "supportsInterface",
      "outputs": [
        {
          "internalType": "bool",
          "name": "",
          "type": "bool"
        }
      ],
      "stateMutability": "view",
      "type": "function"
    },
    {
      "inputs": [],
      "name": "tokenManager",
      "outputs": [
        {
          "internalType": "contract SpectrumTokenManager",
          "name": "",
          "type": "address"
        }
      ],
      "stateMutability": "view",
      "type": "function"
    },
    {
      "inputs": [
        {
          "internalType": "address",
          "name": "newOwner",
          "type": "address"
        }
      ],
      "name": "transferOwnership",
      "outputs": [],
      "stateMutability": "nonpayable",
      "type": "function"
    },
    {
      "inputs": [],
      "name": "unpause",
      "outputs": [],
      "stateMutability": "nonpayable",
      "type": "function"
    }
  ],
  "bytecode": "0x60806040523480156200001157600080fd5b506040516200176f3803806200176f833981016040819052620000349162000296565b33806200005c57604051631e4fbdf760e01b8152600060048201526024015b60405180910390fd5b620000678162000229565b506000805460ff60a01b191690556001600160a01b038416620000cd5760405162461bcd60e51b815260206004820152601e60248201527f496e76616c696420737065637472756d20746f6b656e20616464726573730000604482015260640162000053565b6001600160a01b038316620001255760405162461bcd60e51b815260206004820152601d60248201527f496e76616c696420746f6b656e206d616e616765722061646472657373000000604482015260640162000053565b6001600160a01b0382166200017d5760405162461bcd60e51b815260206004820181905260248201527f496e76616c69642070726f7669646572206d616e616765722061646472657373604482015260640162000053565b6001600160a01b038116620001d55760405162461bcd60e51b815260206004820152601e60248201527f496e76616c69642072656e74616c206d616e6167657220616464726573730000604482015260640162000053565b600180546001600160a01b039586166001600160a01b0319918216179091556002805494861694821694909417909355600380549285169284169290921790915560048054919093169116179055620002f3565b600080546001600160a01b038381166001600160a01b0319831681178455604051919092169283917f8be0079c531659141344cd1fd0a4f28419497f9722a3daafe3b4186f6b6457e09190a35050565b80516001600160a01b03811681146200029157600080fd5b919050565b60008060008060808587031215620002ad57600080fd5b620002b88562000279565b9350620002c86020860162000279565b9250620002d86040860162000279565b9150620002e86060860162000279565b905092959194509250565b61146c80620003036000396000f3fe6080604052600436106100fe5760003560e01c80638456cb5911610095578063bc197c8111610064578063bc197c8114610281578063c278cff6146102c9578063c315e456146102e9578063f23a6e6114610309578063f2fde38b1461033657600080fd5b80638456cb591461020e5780638da5cb5b14610223578063aa62abc914610241578063af0ffbdd1461026157600080fd5b80635c975abb116100d15780635c975abb146101a757806370d5385c146101c6578063715018a6146101d957806377b4ec93146101ee57600080fd5b806301ffc9a71461010357806313151ec9146101385780632a709b14146101705780633f4ba83a14610190575b600080fd5b34801561010f57600080fd5b5061012361011e366004610edd565b610356565b60405190151581526020015b60405180910390f35b34801561014457600080fd5b50600354610158906001600160a01b031681565b6040516001600160a01b03909116815260200161012f565b34801561017c57600080fd5b50600254610158906001600160a01b031681565b34801561019c57600080fd5b506101a561038d565b005b3480156101b357600080fd5b50600054600160a01b900460ff16610123565b6101a56101d4366004610f5a565b61039f565b3480156101e557600080fd5b506101a56104af565b3480156101fa57600080fd5b506101a5610209366004610fce565b6104c1565b34801561021a57600080fd5b506101a56107d7565b34801561022f57600080fd5b506000546001600160a01b0316610158565b34801561024d57600080fd5b50600154610158906001600160a01b031681565b34801561026d57600080fd5b506101a561027c36600461103a565b6107e7565b34801561028d57600080fd5b506102b061029c3660046110c4565b63bc197c8160e01b98975050505050505050565b6040516001600160e01b0319909116815260200161012f565b3480156102d557600080fd5b50600454610158906001600160a01b031681565b3480156102f557600080fd5b506101a5610304366004610fce565b610c85565b34801561031557600080fd5b506102b061032436600461117f565b63f23a6e6160e01b9695505050505050565b34801561034257600080fd5b506101a56103513660046111f7565b610d35565b60006001600160e01b03198216630271189760e51b148061038757506301ffc9a760e01b6001600160e01b03198316145b92915050565b610395610d73565b61039d610da0565b565b6103a7610df5565b8034146103f45760405162461bcd60e51b8152602060048201526016602482015275125b98dbdc9c9958dd0818985b185b98d9481cd95b9d60521b60448201526064015b60405180910390fd5b600480546040516356a2761d60e11b81526001600160a01b039091169163ad44ec3a9161042d9133918a918a918a918a918a9101611244565b600060405180830381600087803b15801561044757600080fd5b505af115801561045b573d6000803e3d6000fd5b50505050336001600160a01b03167f7e4717d6122df6bdcb9deb55d76d0229eafbea23626e46f63ac5dfa10d38dab886868686866040516104a0959493929190611290565b60405180910390a25050505050565b6104b7610d73565b61039d6000610e20565b6104c9610df5565b60015460405163e985e9c560e01b81523360048201523060248201526001600160a01b039091169063e985e9c590604401602060405180830381865afa158015610517573d6000803e3d6000fd5b505050506040513d601f19601f8201168201806040525081019061053b91906112ca565b6105825760405162461bcd60e51b815260206004820152601860248201527713585c9ad95d1c1b1858d9481b9bdd08185c1c1c9bdd995960421b60448201526064016103eb565b60005b838110156106485760008585838181106105a1576105a16112ec565b90506020020135905060008484848181106105be576105be6112ec565b600154604051637921219560e11b81526020909202939093013593506001600160a01b039092169163f242432a9150610601903390309087908790600401611302565b600060405180830381600087803b15801561061b57600080fd5b505af115801561062f573d6000803e3d6000fd5b50505050505080806106409061133a565b915050610585565b506001805460025460405163a22cb46560e01b81526001600160a01b0391821660048201526024810193909352169063a22cb46590604401600060405180830381600087803b15801561069a57600080fd5b505af11580156106ae573d6000803e3d6000fd5b5050600154600254604051631759616b60e11b81526001600160a01b039283169450632eb2c2d693506106ef92309216908990899089908990600401611361565b600060405180830381600087803b15801561070957600080fd5b505af115801561071d573d6000803e3d6000fd5b505060048054604051637bebe66b60e01b81526001600160a01b039091169350637bebe66b92506107589133918991899189918991016113c0565b600060405180830381600087803b15801561077257600080fd5b505af1158015610786573d6000803e3d6000fd5b50505050336001600160a01b03167f28b96ef3ef1ee8a3c1aec026647c11501dbe4c13a57c93f23d0f742f3054bf9b858585856040516107c99493929190611404565b60405180910390a250505050565b6107df610d73565b61039d610e70565b6107ef610df5565b6000821161083f5760405162461bcd60e51b815260206004820181905260248201527f416d6f756e74206d7573742062652067726561746572207468616e207a65726f60448201526064016103eb565b6000811161089f5760405162461bcd60e51b815260206004820152602760248201527f526174652070657220686f7572206d7573742062652067726561746572207468604482015266616e207a65726f60c81b60648201526084016103eb565b60015460405163e985e9c560e01b81523360048201523060248201526001600160a01b039091169063e985e9c590604401602060405180830381865afa1580156108ed573d6000803e3d6000fd5b505050506040513d601f19601f8201168201806040525081019061091191906112ca565b6109585760405162461bcd60e51b815260206004820152601860248201527713585c9ad95d1c1b1858d9481b9bdd08185c1c1c9bdd995960421b60448201526064016103eb565b600154604051637921219560e11b81526001600160a01b039091169063f242432a9061098e903390309088908890600401611302565b600060405180830381600087803b1580156109a857600080fd5b505af11580156109bc573d6000803e3d6000fd5b505060015460025460405163e985e9c560e01b81523060048201526001600160a01b0391821660248201529116925063e985e9c59150604401602060405180830381865afa158015610a12573d6000803e3d6000fd5b505050506040513d601f19601f82011682018060405250810190610a3691906112ca565b610aa4576001805460025460405163a22cb46560e01b81526001600160a01b0391821660048201526024810193909352169063a22cb46590604401600060405180830381600087803b158015610a8b57600080fd5b505af1158015610a9f573d6000803e3d6000fd5b505050505b60015460025460405163e985e9c560e01b81523060048201526001600160a01b03918216602482015291169063e985e9c590604401602060405180830381865afa158015610af6573d6000803e3d6000fd5b505050506040513d601f19601f82011682018060405250810190610b1a91906112ca565b610b665760405162461bcd60e51b815260206004820152601960248201527f546f6b656e4d616e61676572206e6f7420617070726f7665640000000000000060448201526064016103eb565b60025460405163c97d8b5b60e01b815233600482015260248101859052604481018490526001600160a01b039091169063c97d8b5b90606401600060405180830381600087803b158015610bb957600080fd5b505af1158015610bcd573d6000803e3d6000fd5b505060035460405163e7bb9ef360e01b81523360048201526024810187905260448101869052606481018590526001600160a01b03909116925063e7bb9ef39150608401600060405180830381600087803b158015610c2b57600080fd5b505af1158015610c3f573d6000803e3d6000fd5b505060408051858152602081018590528693503392507f2b35ac1a7be39652d7951905d3b0c6e03259a0a9438969c0fe9fdb43507dec46910160405180910390a3505050565b610c8d610df5565b60048054604051633851a3c160e01b81526001600160a01b0390911691633851a3c191610cc49133918991899189918991016113c0565b600060405180830381600087803b158015610cde57600080fd5b505af1158015610cf2573d6000803e3d6000fd5b50505050336001600160a01b03167fd6b97cad817bd3e7d594a809cc2ad0481cfd1c58b230554e7eb498820e381c9e858585856040516107c99493929190611404565b610d3d610d73565b6001600160a01b038116610d6757604051631e4fbdf760e01b8152600060048201526024016103eb565b610d7081610e20565b50565b6000546001600160a01b0316331461039d5760405163118cdaa760e01b81523360048201526024016103eb565b610da8610eb3565b6000805460ff60a01b191690557f5db9ee0a495bf2e6ff9c91a7834c1ba4fdd244a5e8aa4e537bd38aeae4b073aa335b6040516001600160a01b03909116815260200160405180910390a1565b600054600160a01b900460ff161561039d5760405163d93c066560e01b815260040160405180910390fd5b600080546001600160a01b038381166001600160a01b0319831681178455604051919092169283917f8be0079c531659141344cd1fd0a4f28419497f9722a3daafe3b4186f6b6457e09190a35050565b610e78610df5565b6000805460ff60a01b1916600160a01b1790557f62e78cea01bee320cd4e420270b5ea74000d11b0c9f74754ebdbfc544b05a258610dd83390565b600054600160a01b900460ff1661039d57604051638dfc202b60e01b815260040160405180910390fd5b600060208284031215610eef57600080fd5b81356001600160e01b031981168114610f0757600080fd5b9392505050565b60008083601f840112610f2057600080fd5b50813567ffffffffffffffff811115610f3857600080fd5b6020830191508360208260051b8501011115610f5357600080fd5b9250929050565b600080600080600060608688031215610f7257600080fd5b853567ffffffffffffffff80821115610f8a57600080fd5b610f9689838a01610f0e565b90975095506020880135915080821115610faf57600080fd5b50610fbc88828901610f0e565b96999598509660400135949350505050565b60008060008060408587031215610fe457600080fd5b843567ffffffffffffffff80821115610ffc57600080fd5b61100888838901610f0e565b9096509450602087013591508082111561102157600080fd5b5061102e87828801610f0e565b95989497509550505050565b60008060006060848603121561104f57600080fd5b505081359360208301359350604090920135919050565b80356001600160a01b038116811461107d57600080fd5b919050565b60008083601f84011261109457600080fd5b50813567ffffffffffffffff8111156110ac57600080fd5b602083019150836020828501011115610f5357600080fd5b60008060008060008060008060a0898b0312156110e057600080fd5b6110e989611066565b97506110f760208a01611066565b9650604089013567ffffffffffffffff8082111561111457600080fd5b6111208c838d01610f0e565b909850965060608b013591508082111561113957600080fd5b6111458c838d01610f0e565b909650945060808b013591508082111561115e57600080fd5b5061116b8b828c01611082565b999c989b5096995094979396929594505050565b60008060008060008060a0878903121561119857600080fd5b6111a187611066565b95506111af60208801611066565b94506040870135935060608701359250608087013567ffffffffffffffff8111156111d957600080fd5b6111e589828a01611082565b979a9699509497509295939492505050565b60006020828403121561120957600080fd5b610f0782611066565b81835260006001600160fb1b0383111561122b57600080fd5b8260051b80836020870137939093016020019392505050565b6001600160a01b03871681526080602082018190526000906112699083018789611212565b828103604084015261127c818688611212565b915050826060830152979650505050505050565b6060815260006112a4606083018789611212565b82810360208401526112b7818688611212565b9150508260408301529695505050505050565b6000602082840312156112dc57600080fd5b81518015158114610f0757600080fd5b634e487b7160e01b600052603260045260246000fd5b6001600160a01b0394851681529290931660208301526040820152606081019190915260a06080820181905260009082015260c00190565b60006001820161135a57634e487b7160e01b600052601160045260246000fd5b5060010190565b6001600160a01b0387811682528616602082015260a06040820181905260009061138e9083018688611212565b82810360608401526113a1818587611212565b8381036080909401939093525050600081526020019695505050505050565b6001600160a01b03861681526060602082018190526000906113e59083018688611212565b82810360408401526113f8818587611212565b98975050505050505050565b604081526000611418604083018688611212565b828103602084015261142b818587611212565b97965050505050505056fea264697066735822122048b6236ba0360119ef6f16c9eb2383f9c39f3bc7544d9c25e2d77fdeb820d8ae64736f6c63430008140033",
  "linkReferences": {},
  "deployedLinkReferences": {}
}