{
  "_format": "hh-sol-artifact-1",
  "contractName": "SpectrumTokenManager",
  "sourceName": "contracts/SpectrumTokenManager.sol",
  "abi": [
    {
      "inputs": [
        {
          "internalType": "address",
          "name": "tokenAddress",
          "type": "address"
        }
      ],
      "stateMutability": "nonpayable",
      "type": "constructor"
    },
    {
      "inputs": [
        {
          "internalType": "address",
          "name": "owner",
          "type": "address"
        }
      ],
      "name": "OwnableInvalidOwner",
      "type": "error"
    },
    {
      "inputs": [
        {
          "internalType": "address",
          "name": "account",
          "type": "address"
        }
      ],
      "name": "OwnableUnauthorizedAccount",
      "type": "error"
    },
    {
      "anonymous": false,
      "inputs": [
        {
          "indexed": true,
          "internalType": "address",
          "name": "previousOwner",
          "type": "address"
        },
        {
          "indexed": true,
          "internalType": "address",
          "name": "newOwner",
          "type": "address"
        }
      ],
      "name": "OwnershipTransferred",
      "type": "event"
    },
    {
      "anonymous": false,
      "inputs": [
        {
          "indexed": true,
          "internalType": "address",
          "name": "tenant",
          "type": "address"
        },
        {
          "indexed": false,
          "internalType": "uint256[]",
          "name": "spectrumIds",
          "type": "uint256[]"
        },
        {
          "indexed": false,
          "internalType": "uint256[]",
          "name": "amounts",
          "type": "uint256[]"
        }
      ],
      "name": "TokensReturnedFromTenant",
      "type": "event"
    },
    {
      "anonymous": false,
      "inputs": [
        {
          "indexed": true,
          "internalType": "address",
          "name": "provider",
          "type": "address"
        },
        {
          "indexed": true,
          "internalType": "uint256",
          "name": "spectrumId",
          "type": "uint256"
        },
        {
          "indexed": false,
          "internalType": "uint256",
          "name": "amount",
          "type": "uint256"
        }
      ],
      "name": "TokensReturnedToProvider",
      "type": "event"
    },
    {
      "anonymous": false,
      "inputs": [
        {
          "indexed": true,
          "internalType": "address",
          "name": "provider",
          "type": "address"
        },
        {
          "indexed": true,
          "internalType": "uint256",
          "name": "spectrumId",
          "type": "uint256"
        },
        {
          "indexed": false,
          "internalType": "uint256",
          "name": "amount",
          "type": "uint256"
        }
      ],
      "name": "TokensTransferredToCustody",
      "type": "event"
    },
    {
      "anonymous": false,
      "inputs": [
        {
          "indexed": true,
          "internalType": "address",
          "name": "tenant",
          "type": "address"
        },
        {
          "indexed": false,
          "internalType": "uint256[]",
          "name": "spectrumIds",
          "type": "uint256[]"
        },
        {
          "indexed": false,
          "internalType": "uint256[]",
          "name": "amounts",
          "type": "uint256[]"
        }
      ],
      "name": "TokensTransferredToTenant",
      "type": "event"
    },
    {
      "inputs": [
        {
          "internalType": "address",
          "name": "",
          "type": "address"
        },
        {
          "internalType": "address",
          "name": "",
          "type": "address"
        },
        {
          "internalType": "uint256[]",
          "name": "",
          "type": "uint256[]"
        },
        {
          "internalType": "uint256[]",
          "name": "",
          "type": "uint256[]"
        },
        {
          "internalType": "bytes",
          "name": "",
          "type": "bytes"
        }
      ],
      "name": "onERC1155BatchReceived",
      "outputs": [
        {
          "internalType": "bytes4",
          "name": "",
          "type": "bytes4"
        }
      ],
      "stateMutability": "pure",
      "type": "function"
    },
    {
      "inputs": [
        {
          "internalType": "address",
          "name": "",
          "type": "address"
        },
        {
          "internalType": "address",
          "name": "",
          "type": "address"
        },
        {
          "internalType": "uint256",
          "name": "",
          "type": "uint256"
        },
        {
          "internalType": "uint256",
          "name": "",
          "type": "uint256"
        },
        {
          "internalType": "bytes",
          "name": "",
          "type": "bytes"
        }
      ],
      "name": "onERC1155Received",
      "outputs": [
        {
          "internalType": "bytes4",
          "name": "",
          "type": "bytes4"
        }
      ],
      "stateMutability": "pure",
      "type": "function"
    },
    {
      "inputs": [],
      "name": "owner",
      "outputs": [
        {
          "internalType": "address",
          "name": "",
          "type": "address"
        }
      ],
      "stateMutability": "view",
      "type": "function"
    },
    {
      "inputs": [],
      "name": "providerManager",
      "outputs": [
        {
          "internalType": "address",
          "name": "",
          "type": "address"
        }
      ],
      "stateMutability": "view",
      "type": "function"
    },
    {
      "inputs": [
        {
          "internalType": "address",
          "name": "provider",
          "type": "address"
        },
        {
          "internalType": "uint256",
          "name": "spectrumId",
          "type": "uint256"
        },
        {
          "internalType": "uint256",
          "name": "amount",
          "type": "uint256"
        }
      ],
      "name": "receiveTokensFromProvider",
      "outputs": [],
      "stateMutability": "nonpayable",
      "type": "function"
    },
    {
      "inputs": [],
      "name": "renounceOwnership",
      "outputs": [],
      "stateMutability": "nonpayable",
      "type": "function"
    },
    {
      "inputs": [
        {
          "internalType": "address",
          "name": "tenant",
          "type": "address"
        },
        {
          "internalType": "uint256[]",
          "name": "spectrumIds",
          "type": "uint256[]"
        },
        {
          "internalType": "uint256[]",
          "name": "amounts",
          "type": "uint256[]"
        }
      ],
      "name": "returnFromTenant",
      "outputs": [],
      "stateMutability": "nonpayable",
      "type": "function"
    },
    {
      "inputs": [
        {
          "internalType": "address",
          "name": "provider",
          "type": "address"
        },
        {
          "internalType": "uint256",
          "name": "spectrumId",
          "type": "uint256"
        },
        {
          "internalType": "uint256",
          "name": "amount",
          "type": "uint256"
        }
      ],
      "name": "returnToProvider",
      "outputs": [],
      "stateMutability": "nonpayable",
      "type": "function"
    },
    {
      "inputs": [
        {
          "internalType": "address",
          "name": "_providerManager",
          "type": "address"
        }
      ],
      "name": "setProviderManager",
      "outputs": [],
      "stateMutability": "nonpayable",
      "type": "function"
    },
    {
      "inputs": [],
      "name": "spectrumToken",
      "outputs": [
        {
          "internalType": "contract SpectrumToken",
          "name": "",
          "type": "address"
        }
      ],
      "stateMutability": "view",
      "type": "function"
    },
    {
      "inputs": [
        {
          "internalType": "bytes4",
          "name": "interfaceId",
          "type": "bytes4"
        }
      ],
      "name": "supportsInterface",
      "outputs": [
        {
          "internalType": "bool",
          "name": "",
          "type": "bool"
        }
      ],
      "stateMutability": "view",
      "type": "function"
    },
    {
      "inputs": [
        {
          "internalType": "address",
          "name": "newOwner",
          "type": "address"
        }
      ],
      "name": "transferOwnership",
      "outputs": [],
      "stateMutability": "nonpayable",
      "type": "function"
    },
    {
      "inputs": [
        {
          "internalType": "address",
          "name": "tenant",
          "type": "address"
        },
        {
          "internalType": "uint256[]",
          "name": "spectrumIds",
          "type": "uint256[]"
        },
        {
          "internalType": "uint256[]",
          "name": "amounts",
          "type": "uint256[]"
        }
      ],
      "name": "transferToTenant",
      "outputs": [],
      "stateMutability": "nonpayable",
      "type": "function"
    }
  ],
  "bytecode": "0x608060405234801561001057600080fd5b50604051610e14380380610e1483398101604081905261002f916100d4565b338061005557604051631e4fbdf760e01b81526000600482015260240160405180910390fd5b61005e81610084565b50600180546001600160a01b0319166001600160a01b0392909216919091179055610104565b600080546001600160a01b038381166001600160a01b0319831681178455604051919092169283917f8be0079c531659141344cd1fd0a4f28419497f9722a3daafe3b4186f6b6457e09190a35050565b6000602082840312156100e657600080fd5b81516001600160a01b03811681146100fd57600080fd5b9392505050565b610d01806101136000396000f3fe608060405234801561001057600080fd5b50600436106100cf5760003560e01c8063aa62abc91161008c578063cac7b05c11610066578063cac7b05c146101c9578063d250ee2c146101dc578063f23a6e61146101ef578063f2fde38b1461020f57600080fd5b8063aa62abc914610168578063bc197c811461017b578063c97d8b5b146101b657600080fd5b806301ffc9a7146100d457806313151ec9146100fc578063507251991461012757806354dfd9031461013c578063715018a61461014f5780638da5cb5b14610157575b600080fd5b6100e76100e2366004610889565b610222565b60405190151581526020015b60405180910390f35b60025461010f906001600160a01b031681565b6040516001600160a01b0390911681526020016100f3565b61013a610135366004610922565b610259565b005b61013a61014a3660046109a3565b610386565b61013a6103b0565b6000546001600160a01b031661010f565b60015461010f906001600160a01b031681565b61019d610189366004610a00565b63bc197c8160e01b98975050505050505050565b6040516001600160e01b031990911681526020016100f3565b61013a6101c4366004610abb565b6103c4565b61013a6101d7366004610abb565b6105d4565b61013a6101ea366004610922565b610721565b61019d6101fd366004610aee565b63f23a6e6160e01b9695505050505050565b61013a61021d3660046109a3565b6107ce565b60006001600160e01b03198216630271189760e51b148061025357506301ffc9a760e01b6001600160e01b03198316145b92915050565b6001600160a01b0385166102ad5760405162461bcd60e51b8152602060048201526016602482015275496e76616c69642074656e616e74206164647265737360501b60448201526064015b60405180910390fd5b8281146102cc5760405162461bcd60e51b81526004016102a490610b66565b600154604051631759616b60e11b81526001600160a01b0390911690632eb2c2d69061030690309089908990899089908990600401610be0565b600060405180830381600087803b15801561032057600080fd5b505af1158015610334573d6000803e3d6000fd5b50505050846001600160a01b03167f8daffdf2186c0341347f9222e16f46bab3111313729de15260ccf439eacf53fa858585856040516103779493929190610c3f565b60405180910390a25050505050565b61038e61080c565b600280546001600160a01b0319166001600160a01b0392909216919091179055565b6103b861080c565b6103c26000610839565b565b6001600160a01b0383166104155760405162461bcd60e51b8152602060048201526018602482015277496e76616c69642070726f7669646572206164647265737360401b60448201526064016102a4565b600081116104655760405162461bcd60e51b815260206004820181905260248201527f416d6f756e74206d7573742062652067726561746572207468616e207a65726f60448201526064016102a4565b60015460405163e985e9c560e01b81523360048201523060248201526001600160a01b039091169063e985e9c590604401602060405180830381865afa1580156104b3573d6000803e3d6000fd5b505050506040513d601f19601f820116820180604052508101906104d79190610c71565b6105235760405162461bcd60e51b815260206004820152601960248201527f546f6b656e4d616e61676572206e6f7420617070726f7665640000000000000060448201526064016102a4565b600154604051637921219560e11b81526001600160a01b039091169063f242432a90610559903390309087908790600401610c93565b600060405180830381600087803b15801561057357600080fd5b505af1158015610587573d6000803e3d6000fd5b5050505081836001600160a01b03167fad9d283938bb402c17b60a1856ac622d7470be4d63f66109ca54fda6d7a8e4ee836040516105c791815260200190565b60405180910390a3505050565b6105dc61080c565b6001600160a01b03831661062d5760405162461bcd60e51b8152602060048201526018602482015277496e76616c69642070726f7669646572206164647265737360401b60448201526064016102a4565b6000811161067d5760405162461bcd60e51b815260206004820181905260248201527f416d6f756e74206d7573742062652067726561746572207468616e207a65726f60448201526064016102a4565b600154604051637921219560e11b81526001600160a01b039091169063f242432a906106b3903090879087908790600401610c93565b600060405180830381600087803b1580156106cd57600080fd5b505af11580156106e1573d6000803e3d6000fd5b5050505081836001600160a01b03167fcfc29fca6afff7dc9f6952ece43b95ae5084904e2abdf1f18d7c886999651733836040516105c791815260200190565b6001600160a01b0385166107705760405162461bcd60e51b8152602060048201526016602482015275496e76616c69642074656e616e74206164647265737360501b60448201526064016102a4565b82811461078f5760405162461bcd60e51b81526004016102a490610b66565b846001600160a01b03167f8435c5b7dfefab2134a3f2af3086f793ffdd0184549b96f05fe690a39cf5c92b858585856040516103779493929190610c3f565b6107d661080c565b6001600160a01b03811661080057604051631e4fbdf760e01b8152600060048201526024016102a4565b61080981610839565b50565b6000546001600160a01b031633146103c25760405163118cdaa760e01b81523360048201526024016102a4565b600080546001600160a01b038381166001600160a01b0319831681178455604051919092169283917f8be0079c531659141344cd1fd0a4f28419497f9722a3daafe3b4186f6b6457e09190a35050565b60006020828403121561089b57600080fd5b81356001600160e01b0319811681146108b357600080fd5b9392505050565b80356001600160a01b03811681146108d157600080fd5b919050565b60008083601f8401126108e857600080fd5b50813567ffffffffffffffff81111561090057600080fd5b6020830191508360208260051b850101111561091b57600080fd5b9250929050565b60008060008060006060868803121561093a57600080fd5b610943866108ba565b9450602086013567ffffffffffffffff8082111561096057600080fd5b61096c89838a016108d6565b9096509450604088013591508082111561098557600080fd5b50610992888289016108d6565b969995985093965092949392505050565b6000602082840312156109b557600080fd5b6108b3826108ba565b60008083601f8401126109d057600080fd5b50813567ffffffffffffffff8111156109e857600080fd5b60208301915083602082850101111561091b57600080fd5b60008060008060008060008060a0898b031215610a1c57600080fd5b610a25896108ba565b9750610a3360208a016108ba565b9650604089013567ffffffffffffffff80821115610a5057600080fd5b610a5c8c838d016108d6565b909850965060608b0135915080821115610a7557600080fd5b610a818c838d016108d6565b909650945060808b0135915080821115610a9a57600080fd5b50610aa78b828c016109be565b999c989b5096995094979396929594505050565b600080600060608486031215610ad057600080fd5b610ad9846108ba565b95602085013595506040909401359392505050565b60008060008060008060a08789031215610b0757600080fd5b610b10876108ba565b9550610b1e602088016108ba565b94506040870135935060608701359250608087013567ffffffffffffffff811115610b4857600080fd5b610b5489828a016109be565b979a9699509497509295939492505050565b60208082526028908201527f4d69736d61746368206265747765656e20737065637472756d49647320616e6460408201526720616d6f756e747360c01b606082015260800190565b81835260006001600160fb1b03831115610bc757600080fd5b8260051b80836020870137939093016020019392505050565b6001600160a01b0387811682528616602082015260a060408201819052600090610c0d9083018688610bae565b8281036060840152610c20818587610bae565b8381036080909401939093525050600081526020019695505050505050565b604081526000610c53604083018688610bae565b8281036020840152610c66818587610bae565b979650505050505050565b600060208284031215610c8357600080fd5b815180151581146108b357600080fd5b6001600160a01b0394851681529290931660208301526040820152606081019190915260a06080820181905260009082015260c0019056fea26469706673582212202f140021e8bc307dd113b5675889b902582c3bf8c823a46894ae7dd2438a0b8464736f6c63430008140033",
  "linkReferences": {},
  "deployedLinkReferences": {}
}