{
  "_format": "hh-sol-artifact-1",
  "contractName": "SpectrumProviderManager",
  "sourceName": "contracts/SpectrumProviderManager.sol",
  "abi": [
    {
      "inputs": [
        {
          "internalType": "address",
          "name": "tokenManagerAddress",
          "type": "address"
        }
      ],
      "stateMutability": "nonpayable",
      "type": "constructor"
    },
    {
      "inputs": [
        {
          "internalType": "address",
          "name": "owner",
          "type": "address"
        }
      ],
      "name": "OwnableInvalidOwner",
      "type": "error"
    },
    {
      "inputs": [
        {
          "internalType": "address",
          "name": "account",
          "type": "address"
        }
      ],
      "name": "OwnableUnauthorizedAccount",
      "type": "error"
    },
    {
      "anonymous": false,
      "inputs": [
        {
          "indexed": true,
          "internalType": "address",
          "name": "previousOwner",
          "type": "address"
        },
        {
          "indexed": true,
          "internalType": "address",
          "name": "newOwner",
          "type": "address"
        }
      ],
      "name": "OwnershipTransferred",
      "type": "event"
    },
    {
      "anonymous": false,
      "inputs": [
        {
          "indexed": true,
          "internalType": "address",
          "name": "provider",
          "type": "address"
        },
        {
          "indexed": true,
          "internalType": "uint256",
          "name": "spectrumId",
          "type": "uint256"
        },
        {
          "indexed": false,
          "internalType": "uint256",
          "name": "amount",
          "type": "uint256"
        },
        {
          "indexed": false,
          "internalType": "uint256",
          "name": "ratePerHour",
          "type": "uint256"
        }
      ],
      "name": "SpectrumProvided",
      "type": "event"
    },
    {
      "inputs": [
        {
          "internalType": "uint256",
          "name": "spectrumId",
          "type": "uint256"
        },
        {
          "internalType": "uint256",
          "name": "amountNeeded",
          "type": "uint256"
        }
      ],
      "name": "findBestProvider",
      "outputs": [
        {
          "internalType": "address",
          "name": "",
          "type": "address"
        }
      ],
      "stateMutability": "view",
      "type": "function"
    },
    {
      "inputs": [
        {
          "internalType": "uint256",
          "name": "spectrumId",
          "type": "uint256"
        },
        {
          "internalType": "uint256",
          "name": "index",
          "type": "uint256"
        }
      ],
      "name": "getProviderByIndex",
      "outputs": [
        {
          "internalType": "address",
          "name": "",
          "type": "address"
        }
      ],
      "stateMutability": "view",
      "type": "function"
    },
    {
      "inputs": [
        {
          "internalType": "uint256",
          "name": "spectrumId",
          "type": "uint256"
        }
      ],
      "name": "getProviderCount",
      "outputs": [
        {
          "internalType": "uint256",
          "name": "",
          "type": "uint256"
        }
      ],
      "stateMutability": "view",
      "type": "function"
    },
    {
      "inputs": [],
      "name": "owner",
      "outputs": [
        {
          "internalType": "address",
          "name": "",
          "type": "address"
        }
      ],
      "stateMutability": "view",
      "type": "function"
    },
    {
      "inputs": [
        {
          "internalType": "address",
          "name": "provider",
          "type": "address"
        },
        {
          "internalType": "uint256",
          "name": "spectrumId",
          "type": "uint256"
        },
        {
          "internalType": "uint256",
          "name": "amount",
          "type": "uint256"
        },
        {
          "internalType": "uint256",
          "name": "ratePerHour",
          "type": "uint256"
        }
      ],
      "name": "provideTokens",
      "outputs": [],
      "stateMutability": "nonpayable",
      "type": "function"
    },
    {
      "inputs": [
        {
          "internalType": "address",
          "name": "",
          "type": "address"
        },
        {
          "internalType": "uint256",
          "name": "",
          "type": "uint256"
        }
      ],
      "name": "providerRates",
      "outputs": [
        {
          "internalType": "uint256",
          "name": "",
          "type": "uint256"
        }
      ],
      "stateMutability": "view",
      "type": "function"
    },
    {
      "inputs": [
        {
          "internalType": "address",
          "name": "",
          "type": "address"
        },
        {
          "internalType": "uint256",
          "name": "",
          "type": "uint256"
        }
      ],
      "name": "providerTokenBalances",
      "outputs": [
        {
          "internalType": "uint256",
          "name": "",
          "type": "uint256"
        }
      ],
      "stateMutability": "view",
      "type": "function"
    },
    {
      "inputs": [],
      "name": "renounceOwnership",
      "outputs": [],
      "stateMutability": "nonpayable",
      "type": "function"
    },
    {
      "inputs": [
        {
          "internalType": "uint256",
          "name": "",
          "type": "uint256"
        },
        {
          "internalType": "uint256",
          "name": "",
          "type": "uint256"
        }
      ],
      "name": "spectrumProviders",
      "outputs": [
        {
          "internalType": "address",
          "name": "",
          "type": "address"
        }
      ],
      "stateMutability": "view",
      "type": "function"
    },
    {
      "inputs": [],
      "name": "tokenManager",
      "outputs": [
        {
          "internalType": "contract SpectrumTokenManager",
          "name": "",
          "type": "address"
        }
      ],
      "stateMutability": "view",
      "type": "function"
    },
    {
      "inputs": [
        {
          "internalType": "address",
          "name": "newOwner",
          "type": "address"
        }
      ],
      "name": "transferOwnership",
      "outputs": [],
      "stateMutability": "nonpayable",
      "type": "function"
    },
    {
      "inputs": [
        {
          "internalType": "address",
          "name": "provider",
          "type": "address"
        },
        {
          "internalType": "uint256",
          "name": "spectrumId",
          "type": "uint256"
        },
        {
          "internalType": "uint256",
          "name": "allocatedAmount",
          "type": "uint256"
        }
      ],
      "name": "updateProviderBalance",
      "outputs": [],
      "stateMutability": "nonpayable",
      "type": "function"
    }
  ],
  "bytecode": "0x608060405234801561001057600080fd5b50604051610bbf380380610bbf83398101604081905261002f916100d4565b338061005557604051631e4fbdf760e01b81526000600482015260240160405180910390fd5b61005e81610084565b50600180546001600160a01b0319166001600160a01b0392909216919091179055610104565b600080546001600160a01b038381166001600160a01b0319831681178455604051919092169283917f8be0079c531659141344cd1fd0a4f28419497f9722a3daafe3b4186f6b6457e09190a35050565b6000602082840312156100e657600080fd5b81516001600160a01b03811681146100fd57600080fd5b9392505050565b610aac806101136000396000f3fe608060405234801561001057600080fd5b50600436106100b45760003560e01c8063715018a611610071578063715018a6146101705780638da5cb5b14610178578063983ade7914610189578063e7bb9ef3146101b4578063f2fde38b146101c7578063f433f5fc146101da57600080fd5b806303b3137a146100b95780630855ce5b146100ce5780630a11c160146100fe5780631a8cc608146101115780632a709b141461014a57806349771b891461015d575b600080fd5b6100cc6100c7366004610901565b6101fa565b005b6100e16100dc366004610934565b610311565b6040516001600160a01b0390911681526020015b60405180910390f35b6100e161010c366004610934565b610349565b61013c61011f366004610956565b600260209081526000928352604080842090915290825290205481565b6040519081526020016100f5565b6001546100e1906001600160a01b031681565b6100e161016b366004610934565b61044d565b6100cc6104dc565b6000546001600160a01b03166100e1565b61013c610197366004610956565b600360209081526000928352604080842090915290825290205481565b6100cc6101c2366004610980565b6104f0565b6100cc6101d53660046109b9565b610655565b61013c6101e83660046109db565b60009081526004602052604090205490565b6001600160a01b0383166102555760405162461bcd60e51b815260206004820152601860248201527f496e76616c69642070726f76696465722061646472657373000000000000000060448201526064015b60405180910390fd5b6001600160a01b03831660009081526003602090815260408083208584529091529020548111156102d45760405162461bcd60e51b815260206004820152602360248201527f496e73756666696369656e742062616c616e636520666f7220616c6c6f63617460448201526234b7b760e91b606482015260840161024c565b6001600160a01b038316600090815260036020908152604080832085845290915281208054839290610307908490610a0a565b9091555050505050565b6004602052816000526040600020818154811061032d57600080fd5b6000918252602090912001546001600160a01b03169150829050565b6000805b6000848152600460205260409020548110156103d857600084815260046020526040812080548390811061038357610383610a1d565b60009182526020808320909101546001600160a01b03168083526003825260408084208985529092529120549091508481106103c3575091506104479050565b505080806103d090610a33565b91505061034d565b5060405162461bcd60e51b815260206004820152603b60248201527f4e6f2070726f766964657220666f756e6420776974682073756666696369656e60448201527f7420737065637472756d20666f72207468697320726571756573740000000000606482015260840161024c565b92915050565b60008281526004602052604081205482106104a05760405162461bcd60e51b8152602060048201526013602482015272496e646578206f7574206f6620626f756e647360681b604482015260640161024c565b60008381526004602052604090208054839081106104c0576104c0610a1d565b6000918252602090912001546001600160a01b03169392505050565b6104e4610693565b6104ee60006106c0565b565b600082116105405760405162461bcd60e51b815260206004820181905260248201527f416d6f756e74206d7573742062652067726561746572207468616e207a65726f604482015260640161024c565b600081116105a05760405162461bcd60e51b815260206004820152602760248201527f526174652070657220686f7572206d7573742062652067726561746572207468604482015266616e207a65726f60c81b606482015260840161024c565b6001600160a01b0384166000908152600360209081526040808320868452909152812080548492906105d3908490610a4c565b90915550506001600160a01b03841660009081526002602090815260408083208684529091529020819055610609838583610710565b604080518381526020810183905284916001600160a01b038716917f956235f2280b89ddf76a5ef489af4fb09d1589048b18b745faec097eef2e9dba910160405180910390a350505050565b61065d610693565b6001600160a01b03811661068757604051631e4fbdf760e01b81526000600482015260240161024c565b610690816106c0565b50565b6000546001600160a01b031633146104ee5760405163118cdaa760e01b815233600482015260240161024c565b600080546001600160a01b038381166001600160a01b0319831681178455604051919092169283917f8be0079c531659141344cd1fd0a4f28419497f9722a3daafe3b4186f6b6457e09190a35050565b60008381526005602090815260408083206001600160a01b038616845290915290205460ff166108e0576000838152600460205260408120905b81548110801561079e5750826002600084848154811061076c5761076c610a1d565b60009182526020808320909101546001600160a01b031683528281019390935260409182018120898252909252902054105b156107b557806107ad81610a33565b91505061074a565b81546001808201845560008481526020812090920180546001600160a01b0319166001600160a01b03881617905583546107ef9190610a0a565b90505b818111156108815782610806600183610a0a565b8154811061081657610816610a1d565b9060005260206000200160009054906101000a90046001600160a01b031683828154811061084657610846610a1d565b600091825260209091200180546001600160a01b0319166001600160a01b03929092169190911790558061087981610a5f565b9150506107f2565b508382828154811061089557610895610a1d565b600091825260208083209190910180546001600160a01b0319166001600160a01b03948516179055878252600581526040808320938816835292905220805460ff1916600117905550505b505050565b80356001600160a01b03811681146108fc57600080fd5b919050565b60008060006060848603121561091657600080fd5b61091f846108e5565b95602085013595506040909401359392505050565b6000806040838503121561094757600080fd5b50508035926020909101359150565b6000806040838503121561096957600080fd5b610972836108e5565b946020939093013593505050565b6000806000806080858703121561099657600080fd5b61099f856108e5565b966020860135965060408601359560600135945092505050565b6000602082840312156109cb57600080fd5b6109d4826108e5565b9392505050565b6000602082840312156109ed57600080fd5b5035919050565b634e487b7160e01b600052601160045260246000fd5b81810381811115610447576104476109f4565b634e487b7160e01b600052603260045260246000fd5b600060018201610a4557610a456109f4565b5060010190565b80820180821115610447576104476109f4565b600081610a6e57610a6e6109f4565b50600019019056fea2646970667358221220a1d1109c00e7ac13789dbc05ffdf11c68262f39d2e36897f275f5696151a80a464736f6c63430008140033",
  "linkReferences": {},
  "deployedLinkReferences": {}
}