{
  "_format": "hh-sol-artifact-1",
  "contractName": "SpectrumRentalManager",
  "sourceName": "contracts/SpectrumRentalManager.sol",
  "abi": [
    {
      "inputs": [
        {
          "internalType": "address",
          "name": "providerManagerAddress",
          "type": "address"
        },
        {
          "internalType": "address",
          "name": "tokenManagerAddress",
          "type": "address"
        }
      ],
      "stateMutability": "nonpayable",
      "type": "constructor"
    },
    {
      "inputs": [
        {
          "internalType": "address",
          "name": "owner",
          "type": "address"
        }
      ],
      "name": "OwnableInvalidOwner",
      "type": "error"
    },
    {
      "inputs": [
        {
          "internalType": "address",
          "name": "account",
          "type": "address"
        }
      ],
      "name": "OwnableUnauthorizedAccount",
      "type": "error"
    },
    {
      "anonymous": false,
      "inputs": [
        {
          "indexed": true,
          "internalType": "address",
          "name": "previousOwner",
          "type": "address"
        },
        {
          "indexed": true,
          "internalType": "address",
          "name": "newOwner",
          "type": "address"
        }
      ],
      "name": "OwnershipTransferred",
      "type": "event"
    },
    {
      "anonymous": false,
      "inputs": [
        {
          "indexed": true,
          "internalType": "address",
          "name": "tenant",
          "type": "address"
        },
        {
          "indexed": false,
          "internalType": "uint256[]",
          "name": "spectrumIds",
          "type": "uint256[]"
        },
        {
          "indexed": false,
          "internalType": "uint256[]",
          "name": "amounts",
          "type": "uint256[]"
        },
        {
          "indexed": false,
          "internalType": "uint256",
          "name": "timeAllocated",
          "type": "uint256"
        }
      ],
      "name": "SpectrumRented",
      "type": "event"
    },
    {
      "anonymous": false,
      "inputs": [
        {
          "indexed": true,
          "internalType": "address",
          "name": "tenant",
          "type": "address"
        },
        {
          "indexed": false,
          "internalType": "uint256[]",
          "name": "spectrumIds",
          "type": "uint256[]"
        },
        {
          "indexed": false,
          "internalType": "uint256[]",
          "name": "amounts",
          "type": "uint256[]"
        },
        {
          "indexed": false,
          "internalType": "uint256",
          "name": "timeUsed",
          "type": "uint256"
        },
        {
          "indexed": false,
          "internalType": "uint256",
          "name": "refund",
          "type": "uint256"
        }
      ],
      "name": "SpectrumReturned",
      "type": "event"
    },
    {
      "inputs": [
        {
          "internalType": "address",
          "name": "",
          "type": "address"
        }
      ],
      "name": "activeRentals",
      "outputs": [
        {
          "internalType": "address",
          "name": "tenant",
          "type": "address"
        },
        {
          "internalType": "uint256",
          "name": "timeAllocated",
          "type": "uint256"
        },
        {
          "internalType": "uint256",
          "name": "startTime",
          "type": "uint256"
        },
        {
          "internalType": "uint256",
          "name": "endTime",
          "type": "uint256"
        },
        {
          "internalType": "uint256",
          "name": "ratePerSecond",
          "type": "uint256"
        },
        {
          "internalType": "bool",
          "name": "isActive",
          "type": "bool"
        },
        {
          "internalType": "uint256",
          "name": "lastUpdated",
          "type": "uint256"
        }
      ],
      "stateMutability": "view",
      "type": "function"
    },
    {
      "inputs": [
        {
          "internalType": "address",
          "name": "tenant",
          "type": "address"
        },
        {
          "internalType": "uint256[]",
          "name": "spectrumIds",
          "type": "uint256[]"
        },
        {
          "internalType": "uint256[]",
          "name": "amounts",
          "type": "uint256[]"
        }
      ],
      "name": "expandRental",
      "outputs": [],
      "stateMutability": "nonpayable",
      "type": "function"
    },
    {
      "inputs": [
        {
          "internalType": "address",
          "name": "tenant",
          "type": "address"
        },
        {
          "internalType": "uint256",
          "name": "index",
          "type": "uint256"
        }
      ],
      "name": "getRentedSpectrumIdByIndex",
      "outputs": [
        {
          "internalType": "uint256",
          "name": "",
          "type": "uint256"
        }
      ],
      "stateMutability": "view",
      "type": "function"
    },
    {
      "inputs": [
        {
          "internalType": "address",
          "name": "tenant",
          "type": "address"
        },
        {
          "internalType": "uint256",
          "name": "spectrumId",
          "type": "uint256"
        }
      ],
      "name": "getSpectrumAmount",
      "outputs": [
        {
          "internalType": "uint256",
          "name": "",
          "type": "uint256"
        }
      ],
      "stateMutability": "view",
      "type": "function"
    },
    {
      "inputs": [],
      "name": "owner",
      "outputs": [
        {
          "internalType": "address",
          "name": "",
          "type": "address"
        }
      ],
      "stateMutability": "view",
      "type": "function"
    },
    {
      "inputs": [],
      "name": "providerManager",
      "outputs": [
        {
          "internalType": "contract SpectrumProviderManager",
          "name": "",
          "type": "address"
        }
      ],
      "stateMutability": "view",
      "type": "function"
    },
    {
      "inputs": [],
      "name": "renounceOwnership",
      "outputs": [],
      "stateMutability": "nonpayable",
      "type": "function"
    },
    {
      "inputs": [
        {
          "internalType": "address",
          "name": "tenant",
          "type": "address"
        },
        {
          "internalType": "uint256[]",
          "name": "spectrumIds",
          "type": "uint256[]"
        },
        {
          "internalType": "uint256[]",
          "name": "amounts",
          "type": "uint256[]"
        },
        {
          "internalType": "uint256",
          "name": "balance",
          "type": "uint256"
        }
      ],
      "name": "requestSpectrum",
      "outputs": [],
      "stateMutability": "nonpayable",
      "type": "function"
    },
    {
      "inputs": [
        {
          "internalType": "address",
          "name": "tenant",
          "type": "address"
        },
        {
          "internalType": "uint256[]",
          "name": "spectrumIds",
          "type": "uint256[]"
        },
        {
          "internalType": "uint256[]",
          "name": "amounts",
          "type": "uint256[]"
        }
      ],
      "name": "returnSpectrum",
      "outputs": [],
      "stateMutability": "nonpayable",
      "type": "function"
    },
    {
      "inputs": [],
      "name": "tokenManager",
      "outputs": [
        {
          "internalType": "contract SpectrumTokenManager",
          "name": "",
          "type": "address"
        }
      ],
      "stateMutability": "view",
      "type": "function"
    },
    {
      "inputs": [
        {
          "internalType": "address",
          "name": "newOwner",
          "type": "address"
        }
      ],
      "name": "transferOwnership",
      "outputs": [],
      "stateMutability": "nonpayable",
      "type": "function"
    }
  ],
  "bytecode": "0x60806040523480156200001157600080fd5b506040516200173238038062001732833981016040819052620000349162000106565b33806200005b57604051631e4fbdf760e01b81526000600482015260240160405180910390fd5b620000668162000099565b50600180546001600160a01b039384166001600160a01b031991821617909155600280549290931691161790556200013e565b600080546001600160a01b038381166001600160a01b0319831681178455604051919092169283917f8be0079c531659141344cd1fd0a4f28419497f9722a3daafe3b4186f6b6457e09190a35050565b80516001600160a01b03811681146200010157600080fd5b919050565b600080604083850312156200011a57600080fd5b6200012583620000e9565b91506200013560208401620000e9565b90509250929050565b6115e4806200014e6000396000f3fe608060405234801561001057600080fd5b50600436106100a95760003560e01c80638da5cb5b116100715780638da5cb5b14610121578063ab09605414610132578063ad44ec3a14610153578063d7969fb114610166578063f2fde38b146101a0578063f578470c146101b357600080fd5b806313151ec9146100ae5780632a709b14146100de5780633851a3c1146100f1578063715018a6146101065780637bebe66b1461010e575b600080fd5b6001546100c1906001600160a01b031681565b6040516001600160a01b0390911681526020015b60405180910390f35b6002546100c1906001600160a01b031681565b6101046100ff366004611248565b610250565b005b610104610524565b61010461011c366004611248565b610538565b6000546001600160a01b03166100c1565b6101456101403660046112cb565b610915565b6040519081526020016100d5565b6101046101613660046112f7565b6109b6565b6101456101743660046112cb565b6001600160a01b0391909116600090815260036020908152604080832093835260019093019052205490565b6101046101ae366004611382565b610f83565b61020f6101c1366004611382565b600360208190526000918252604090912080549181015460048201546005830154600684015460078501546008909501546001600160a01b0390961695939492939192909160ff9091169087565b604080516001600160a01b03909816885260208801969096529486019390935260608501919091526080840152151560a083015260c082015260e0016100d5565b6001600160a01b0385166000908152600360205260409020600781015460ff166102955760405162461bcd60e51b815260040161028c906113a6565b60405180910390fd5b6000805b858110156104aa5760008787838181106102b5576102b56113d0565b90506020020135905060008686848181106102d2576102d26113d0565b90506020020135905060005b81811015610494576001546000906001600160a01b0316630a11c1608561030585876113fc565b6040516001600160e01b031960e085901b16815260048101929092526024820152604401602060405180830381865afa158015610346573d6000803e3d6000fd5b505050506040513d601f19601f8201168201806040525081019061036a919061140f565b60015460405163035198c160e31b81526001600160a01b0380841660048301526024820188905292935060009290911690631a8cc60890604401602060405180830381865afa1580156103c1573d6000803e3d6000fd5b505050506040513d601f19601f820116820180604052508101906103e5919061142c565b905060006103f384866113fc565b90506000610e106104048385611445565b61040e919061145c565b9050818a60010160008981526020019081526020016000206000828254610435919061147e565b9091555050600087815260098b01602090815260408220805460018101825590835291200180546001600160a01b0319166001600160a01b03861617905561047d818a61147e565b9850610489828661147e565b9450505050506102de565b50505080806104a290611491565b915050610299565b50808260060160008282546104bf919061147e565b909155506104ce905087610fc1565b866001600160a01b03167f7e4717d6122df6bdcb9deb55d76d0229eafbea23626e46f63ac5dfa10d38dab88787878787600301546040516105139594939291906114dc565b60405180910390a250505050505050565b61052c611078565b61053660006110a5565b565b6001600160a01b0385166000908152600360205260409020600781015460ff166105745760405162461bcd60e51b815260040161028c906113a6565b600081600401544261058691906113fc565b90506000805b868110156108155760008888838181106105a8576105a86113d0565b90506020020135905060008787848181106105c5576105c56113d0565b905060200201359050808660010160008481526020019081526020016000205410156106335760405162461bcd60e51b815260206004820152601c60248201527f52657475726e20616d6f756e7420657863656564732072656e74656400000000604482015260640161028c565b600082815260098701602090815260408083208054825181850281018501909352808352919290919083018282801561069557602002820191906000526020600020905b81546001600160a01b03168152600190910190602001808311610677575b505083519394508593925050505b6000811180156106b35750600082115b156107d6576000836106c66001846113fc565b815181106106d6576106d66113d0565b602090810291909101015160015460405163035198c160e31b81526001600160a01b038084166004830152602482018a905292935060009290911690631a8cc60890604401602060405180830381865afa158015610738573d6000803e3d6000fd5b505050506040513d601f19601f8201168201806040525081019061075c919061142c565b600088815260018d01602052604081205491925090851061078d57600088815260018d01602052604090205461078f565b845b9050610e1061079e8284611445565b6107a8919061145c565b6107b2908b61147e565b99506107be81866113fc565b945050505080806107ce90611516565b9150506106a3565b506000848152600189016020526040812080548592906107f79084906113fc565b9250508190555050505050808061080d90611491565b91505061058c565b508083600601600082825461082a91906113fc565b9091555050600683015460000361084c5760078301805460ff19169055610855565b61085588610fc1565b6002546040516334943b8b60e21b81526001600160a01b039091169063d250ee2c9061088d908b908b908b908b908b9060040161152d565b600060405180830381600087803b1580156108a757600080fd5b505af11580156108bb573d6000803e3d6000fd5b50505050876001600160a01b03167f07073f72053efe29edd2da6ed52bd3f339d73c309562d0ca7e3d0ad15b2cff338888888887600060405161090396959493929190611571565b60405180910390a25050505050505050565b6001600160a01b03821660009081526003602052604081206002015482106109755760405162461bcd60e51b8152602060048201526013602482015272496e646578206f7574206f6620626f756e647360681b604482015260640161028c565b6001600160a01b03831660009081526003602052604090206002018054839081106109a2576109a26113d0565b906000526020600020015490505b92915050565b838214610a115760405162461bcd60e51b815260206004820152602360248201527f537065637472756d2049447320616e6420616d6f756e7473206d757374206d616044820152620e8c6d60eb1b606482015260840161028c565b83610a695760405162461bcd60e51b815260206004820152602260248201527f4d7573742072657175657374206174206c65617374206f6e6520737065637472604482015261756d60f01b606482015260840161028c565b6001600160a01b0386166000908152600360205260409020600781015460ff1615610ace5760405162461bcd60e51b8152602060048201526015602482015274105b1c9958591e481858dd1a5d99481c995b9d185b605a1b604482015260640161028c565b6000805b86811015610e11576000888883818110610aee57610aee6113d0565b9050602002013590506000878784818110610b0b57610b0b6113d0565b905060200201359050600085600101600084815260200190815260200160002054600003610b4e5760028601805460018101825560009182526020909120018390555b81811015610dfb576001546000906001600160a01b0316630a11c16085610b7585876113fc565b6040516001600160e01b031960e085901b16815260048101929092526024820152604401602060405180830381865afa158015610bb6573d6000803e3d6000fd5b505050506040513d601f19601f82011682018060405250810190610bda919061140f565b60015460405163035198c160e31b81526001600160a01b0380841660048301526024820188905292935060009290911690631a8cc60890604401602060405180830381865afa158015610c31573d6000803e3d6000fd5b505050506040513d601f19601f82011682018060405250810190610c55919061142c565b60015460405163983ade7960e01b81526001600160a01b038581166004830152602482018990529293506000929091169063983ade7990604401602060405180830381865afa158015610cac573d6000803e3d6000fd5b505050506040513d601f19601f82011682018060405250810190610cd0919061142c565b90506000610cde85876113fc565b8211610cea5781610cf4565b610cf485876113fc565b6001546040516301d989bd60e11b81526001600160a01b038781166004830152602482018b9052604482018490529293509116906303b3137a90606401600060405180830381600087803b158015610d4b57600080fd5b505af1158015610d5f573d6000803e3d6000fd5b505050600088815260018c01602052604081208054849350909190610d8590849061147e565b9091555050600087815260098b01602090815260408220805460018101825590835291200180546001600160a01b0319166001600160a01b038616179055610e10610dd08285611445565b610dda919061145c565b610de4908a61147e565b9850610df0818661147e565b945050505050610b4e565b5050508080610e0990611491565b915050610ad2565b5060008111610e625760405162461bcd60e51b815260206004820152601860248201527f4e6f2076616c69642070726f76696465727320666f756e640000000000000000604482015260640161028c565b6000610e6e828561145c565b83546001600160a01b0319166001600160a01b038b16178455600384018190554260048501819055909150610ea490829061147e565b60058401556006830182905560078301805460ff19166001179055426008840155600254604051635072519960e01b81526001600160a01b0390911690635072519990610efd908c908c908c908c908c9060040161152d565b600060405180830381600087803b158015610f1757600080fd5b505af1158015610f2b573d6000803e3d6000fd5b50505050886001600160a01b03167f7e4717d6122df6bdcb9deb55d76d0229eafbea23626e46f63ac5dfa10d38dab88989898986604051610f709594939291906114dc565b60405180910390a2505050505050505050565b610f8b611078565b6001600160a01b038116610fb557604051631e4fbdf760e01b81526000600482015260240161028c565b610fbe816110a5565b50565b6001600160a01b0381166000908152600360205260409020600781015460ff16610ffd5760405162461bcd60e51b815260040161028c906113a6565b611006826110f5565b806006015460000361102057600701805460ff1916905550565b60068101546001600160a01b038316319060009061103e908361145c565b905061104a814261147e565b60058401556004830154819061106090426113fc565b61106a919061147e565b836003018190555050505050565b6000546001600160a01b031633146105365760405163118cdaa760e01b815233600482015260240161028c565b600080546001600160a01b038381166001600160a01b0319831681178455604051919092169283917f8be0079c531659141344cd1fd0a4f28419497f9722a3daafe3b4186f6b6457e09190a35050565b6001600160a01b0381166000908152600360205260409020600781015460ff166111315760405162461bcd60e51b815260040161028c906113a6565b600081600801544261114391906113fc565b905060008260060154826111579190611445565b905080846001600160a01b03163110156111aa5760405162461bcd60e51b8152602060048201526014602482015273496e73756666696369656e742062616c616e636560601b604482015260640161028c565b6000811180156111c4575080846001600160a01b03163110155b156111d4574260088401556111e1565b60078301805460ff191690555b50505050565b6001600160a01b0381168114610fbe57600080fd5b60008083601f84011261120e57600080fd5b50813567ffffffffffffffff81111561122657600080fd5b6020830191508360208260051b850101111561124157600080fd5b9250929050565b60008060008060006060868803121561126057600080fd5b853561126b816111e7565b9450602086013567ffffffffffffffff8082111561128857600080fd5b61129489838a016111fc565b909650945060408801359150808211156112ad57600080fd5b506112ba888289016111fc565b969995985093965092949392505050565b600080604083850312156112de57600080fd5b82356112e9816111e7565b946020939093013593505050565b6000806000806000806080878903121561131057600080fd5b863561131b816111e7565b9550602087013567ffffffffffffffff8082111561133857600080fd5b6113448a838b016111fc565b9097509550604089013591508082111561135d57600080fd5b5061136a89828a016111fc565b979a9699509497949695606090950135949350505050565b60006020828403121561139457600080fd5b813561139f816111e7565b9392505050565b60208082526010908201526f139bc81858dd1a5d99481c995b9d185b60821b604082015260600190565b634e487b7160e01b600052603260045260246000fd5b634e487b7160e01b600052601160045260246000fd5b818103818111156109b0576109b06113e6565b60006020828403121561142157600080fd5b815161139f816111e7565b60006020828403121561143e57600080fd5b5051919050565b80820281158282048414176109b0576109b06113e6565b60008261147957634e487b7160e01b600052601260045260246000fd5b500490565b808201808211156109b0576109b06113e6565b6000600182016114a3576114a36113e6565b5060010190565b81835260006001600160fb1b038311156114c357600080fd5b8260051b80836020870137939093016020019392505050565b6060815260006114f06060830187896114aa565b82810360208401526115038186886114aa565b9150508260408301529695505050505050565b600081611525576115256113e6565b506000190190565b6001600160a01b038616815260606020820181905260009061155290830186886114aa565b82810360408401526115658185876114aa565b98975050505050505050565b60808152600061158560808301888a6114aa565b82810360208401526115988187896114aa565b604084019590955250506060015294935050505056fea26469706673582212207257707b83839a9d46cfae2e2b663a8a7cd00ae6700bc0fae4d0e0aa305a6c2464736f6c63430008140033",
  "linkReferences": {},
  "deployedLinkReferences": {}
}